{
  "contractName": "AppProxyPinned",
  "abi": [
    {
      "constant": true,
      "inputs": [],
      "name": "isDepositable",
      "outputs": [
        {
          "name": "",
          "type": "bool"
        }
      ],
      "payable": false,
      "stateMutability": "view",
      "type": "function"
    },
    {
      "constant": true,
      "inputs": [],
      "name": "appId",
      "outputs": [
        {
          "name": "",
          "type": "bytes32"
        }
      ],
      "payable": false,
      "stateMutability": "view",
      "type": "function"
    },
    {
      "constant": true,
      "inputs": [],
      "name": "kernel",
      "outputs": [
        {
          "name": "",
          "type": "address"
        }
      ],
      "payable": false,
      "stateMutability": "view",
      "type": "function"
    },
    {
      "inputs": [
        {
          "name": "_kernel",
          "type": "address"
        },
        {
          "name": "_appId",
          "type": "bytes32"
        },
        {
          "name": "_initializePayload",
          "type": "bytes"
        }
      ],
      "payable": false,
      "stateMutability": "nonpayable",
      "type": "constructor"
    },
    {
      "payable": true,
      "stateMutability": "payable",
      "type": "fallback"
    },
    {
      "anonymous": false,
      "inputs": [
        {
          "indexed": false,
          "name": "sender",
          "type": "address"
        },
        {
          "indexed": false,
          "name": "value",
          "type": "uint256"
        }
      ],
      "name": "ProxyDeposit",
      "type": "event"
    },
    {
      "constant": true,
      "inputs": [],
      "name": "implementation",
      "outputs": [
        {
          "name": "",
          "type": "address"
        }
      ],
      "payable": false,
      "stateMutability": "view",
      "type": "function"
    },
    {
      "constant": true,
      "inputs": [],
      "name": "proxyType",
      "outputs": [
        {
          "name": "proxyTypeId",
          "type": "uint256"
        }
      ],
      "payable": false,
      "stateMutability": "pure",
      "type": "function"
    }
  ],
  "bytecode": "0x608060405234801561001057600080fd5b5060405161090f38038061090f8339810180604052810190808051906020019092919080519060200190929190805182019291905050508282826000610064846101c8640100000000026401000000009004565b61007c83610212640100000000026401000000009004565b6100948361025c640100000000026401000000009004565b9050600082511115610154576100b881610360640100000000026401000000009004565b15156100c357600080fd5b8073ffffffffffffffffffffffffffffffffffffffff168260405180828051906020019080838360005b838110156101085780820151818401526020810190506100ed565b50505050905090810190601f1680156101355780820380516001836020036101000a031916815260200191505b50915050600060405180830381855af4915050151561015357600080fd5b5b505050506101876101738361025c640100000000026401000000009004565b6103b2640100000000026401000000009004565b6101b56101a16103fc640100000000026401000000009004565b610360640100000000026401000000009004565b15156101c057600080fd5b5050506104a9565b61020f817f4172f0f7d2289153072b0a6ca36959e0cbe2efc3afe50fc81636caa96338137b600102600019166104466401000000000261041d179091906401000000009004565b50565b610259817fd625496217aa6a3453eecb9c3489dc5a53e6c67b444329ea2b2cbc9ff547639b6001026000191661044d64010000000002610424179091906401000000009004565b50565b6000610275610454640100000000026401000000009004565b73ffffffffffffffffffffffffffffffffffffffff1663be00bbd87ff1f3eb40f5bc1ad1344716ced8b8a0431d840b5783aea1fd01786bc26f35ac0f600102846040518363ffffffff167c0100000000000000000000000000000000000000000000000000000000028152600401808360001916600019168152602001826000191660001916815260200192505050602060405180830381600087803b15801561031e57600080fd5b505af1158015610332573d6000803e3d6000fd5b505050506040513d602081101561034857600080fd5b81019080805190602001909291905050509050919050565b600080600073ffffffffffffffffffffffffffffffffffffffff168373ffffffffffffffffffffffffffffffffffffffff1614156103a157600091506103ac565b823b90506000811191505b50919050565b6103f9817fdee64df20d65e53d7f51cb6ab6d921a0a6a638a91e942e1d8d02df28e31c038e600102600019166104466401000000000261041d179091906401000000009004565b50565b60006104417fdee64df20d65e53d7f51cb6ab6d921a0a6a638a91e942e1d8d02df28e31c038e6001026000191661049e64010000000002610412176401000000009004565b905090565b8082555050565b8082555050565b60006104997f4172f0f7d2289153072b0a6ca36959e0cbe2efc3afe50fc81636caa96338137b6001026000191661049e64010000000002610412176401000000009004565b905090565b600081549050919050565b610457806104b86000396000f30060806040526004361061006d576000357c0100000000000000000000000000000000000000000000000000000000900463ffffffff1680634555d5c91461013857806348a0c8dd146101635780635c60da1b1461019257806380afdea8146101e9578063d4aae0c41461021c575b600080600061271092507f665fd576fbbe6f247aff98f5c94a561e3f71ec2d3c988d56f12d342396c50cea6001029150825a10156100ec5760003411361583541616156100e7576040513381523460208201527f15eeaa57c7bd188c1388020bcadc2c436ec60d647d36ef5b9eb3c742217ddee1604082a1005b600080fd5b6100f4610273565b9050610133816000368080601f016020809104026020016040519081016040528093929190818152602001838380828437820191505050505050610282565b505050005b34801561014457600080fd5b5061014d6102c5565b6040518082815260200191505060405180910390f35b34801561016f57600080fd5b506101786102ce565b604051808215151515815260200191505060405180910390f35b34801561019e57600080fd5b506101a7610273565b604051808273ffffffffffffffffffffffffffffffffffffffff1673ffffffffffffffffffffffffffffffffffffffff16815260200191505060405180910390f35b3480156101f557600080fd5b506101fe610305565b60405180826000191660001916815260200191505060405180910390f35b34801561022857600080fd5b5061023161033c565b604051808273ffffffffffffffffffffffffffffffffffffffff1673ffffffffffffffffffffffffffffffffffffffff16815260200191505060405180910390f35b600061027d610373565b905090565b600061028d836103aa565b151561029857600080fd5b612710905060008083516020850186855a03f43d604051816000823e82600081146102c1578282f35b8282fd5b60006001905090565b60006103007f665fd576fbbe6f247aff98f5c94a561e3f71ec2d3c988d56f12d342396c50cea600102600019166103fc565b905090565b60006103377fd625496217aa6a3453eecb9c3489dc5a53e6c67b444329ea2b2cbc9ff547639b60010260001916610407565b905090565b600061036e7f4172f0f7d2289153072b0a6ca36959e0cbe2efc3afe50fc81636caa96338137b60010260001916610412565b905090565b60006103a57fdee64df20d65e53d7f51cb6ab6d921a0a6a638a91e942e1d8d02df28e31c038e60010260001916610412565b905090565b600080600073ffffffffffffffffffffffffffffffffffffffff168373ffffffffffffffffffffffffffffffffffffffff1614156103eb57600091506103f6565b823b90506000811191505b50919050565b600081549050919050565b600081549050919050565b600081549050919050565b8082555050565b80825550505600a165627a7a7230582003ba4bfcd223eed47b474987d9101f272b34215a8225f534ca9840fbf88d032f0029",
  "source": "pragma solidity 0.4.24;\n\nimport \"../common/UnstructuredStorage.sol\";\nimport \"../common/IsContract.sol\";\nimport \"./AppProxyBase.sol\";\n\n\ncontract AppProxyPinned is IsContract, AppProxyBase {\n    using UnstructuredStorage for bytes32;\n\n    // keccak256(\"aragonOS.appStorage.pinnedCode\")\n    bytes32 internal constant PINNED_CODE_POSITION = 0xdee64df20d65e53d7f51cb6ab6d921a0a6a638a91e942e1d8d02df28e31c038e;\n\n    /**\n    * @dev Initialize AppProxyPinned (makes it an un-upgradeable Aragon app)\n    * @param _kernel Reference to organization kernel for the app\n    * @param _appId Identifier for app\n    * @param _initializePayload Payload for call to be made after setup to initialize\n    */\n    constructor(IKernel _kernel, bytes32 _appId, bytes _initializePayload)\n        AppProxyBase(_kernel, _appId, _initializePayload)\n        public // solium-disable-line visibility-first\n    {\n        setPinnedCode(getAppBase(_appId));\n        require(isContract(pinnedCode()));\n    }\n\n    /**\n     * @dev ERC897, the address the proxy would delegate calls to\n     */\n    function implementation() public view returns (address) {\n        return pinnedCode();\n    }\n\n    /**\n     * @dev ERC897, whether it is a forwarding (1) or an upgradeable (2) proxy\n     */\n    function proxyType() public pure returns (uint256 proxyTypeId) {\n        return FORWARDING;\n    }\n\n    function setPinnedCode(address _pinnedCode) internal {\n        PINNED_CODE_POSITION.setStorageAddress(_pinnedCode);\n    }\n\n    function pinnedCode() internal view returns (address) {\n        return PINNED_CODE_POSITION.getStorageAddress();\n    }\n}\n",
  "sourcePath": "@aragon/os/contracts/apps/AppProxyPinned.sol",
  "compiler": {
    "name": "solc",
    "version": "0.4.24+commit.e67f0147.Emscripten.clang"
  },
  "schemaVersion": "2.0.1",
  "updatedAt": "2019-10-25T14:30:44.894Z"
}