{
  "contractName": "KernelProxy",
  "abi": [
    {
      "constant": true,
      "inputs": [
        {
          "name": "",
          "type": "bytes32"
        },
        {
          "name": "",
          "type": "bytes32"
        }
      ],
      "name": "apps",
      "outputs": [
        {
          "name": "",
          "type": "address"
        }
      ],
      "payable": false,
      "stateMutability": "view",
      "type": "function"
    },
    {
      "constant": true,
      "inputs": [],
      "name": "isDepositable",
      "outputs": [
        {
          "name": "",
          "type": "bool"
        }
      ],
      "payable": false,
      "stateMutability": "view",
      "type": "function"
    },
    {
      "constant": true,
      "inputs": [],
      "name": "recoveryVaultAppId",
      "outputs": [
        {
          "name": "",
          "type": "bytes32"
        }
      ],
      "payable": false,
      "stateMutability": "view",
      "type": "function"
    },
    {
      "inputs": [
        {
          "name": "_kernelImpl",
          "type": "address"
        }
      ],
      "payable": false,
      "stateMutability": "nonpayable",
      "type": "constructor"
    },
    {
      "payable": true,
      "stateMutability": "payable",
      "type": "fallback"
    },
    {
      "anonymous": false,
      "inputs": [
        {
          "indexed": false,
          "name": "sender",
          "type": "address"
        },
        {
          "indexed": false,
          "name": "value",
          "type": "uint256"
        }
      ],
      "name": "ProxyDeposit",
      "type": "event"
    },
    {
      "anonymous": false,
      "inputs": [
        {
          "indexed": true,
          "name": "namespace",
          "type": "bytes32"
        },
        {
          "indexed": true,
          "name": "appId",
          "type": "bytes32"
        },
        {
          "indexed": false,
          "name": "app",
          "type": "address"
        }
      ],
      "name": "SetApp",
      "type": "event"
    },
    {
      "constant": true,
      "inputs": [],
      "name": "proxyType",
      "outputs": [
        {
          "name": "proxyTypeId",
          "type": "uint256"
        }
      ],
      "payable": false,
      "stateMutability": "pure",
      "type": "function"
    },
    {
      "constant": true,
      "inputs": [],
      "name": "implementation",
      "outputs": [
        {
          "name": "",
          "type": "address"
        }
      ],
      "payable": false,
      "stateMutability": "view",
      "type": "function"
    }
  ],
  "bytecode": "0x608060405234801561001057600080fd5b506040516020806106b88339810180604052810190808051906020019092919050505061004b816101c7640100000000026401000000009004565b151561005657600080fd5b806000807fc681a85306374a5ab27f0bbc385296a54bcd314a1948b6cf61c4ea1bc44bb9f86001026000191660001916815260200190815260200160002060007f3b4bf6bf3ad5000ecf0f989d5befde585c6860fea3e574a4fab4c49d1c177d9c6001026000191660001916815260200190815260200160002060006101000a81548173ffffffffffffffffffffffffffffffffffffffff021916908373ffffffffffffffffffffffffffffffffffffffff1602179055507f3b4bf6bf3ad5000ecf0f989d5befde585c6860fea3e574a4fab4c49d1c177d9c600102600019167fc681a85306374a5ab27f0bbc385296a54bcd314a1948b6cf61c4ea1bc44bb9f8600102600019167f2ec1ae0a449b7ae354b9dacfb3ade6b6332ba26b7fcbb935835fa39dd7263b2383604051808273ffffffffffffffffffffffffffffffffffffffff1673ffffffffffffffffffffffffffffffffffffffff16815260200191505060405180910390a350610219565b600080600073ffffffffffffffffffffffffffffffffffffffff168373ffffffffffffffffffffffffffffffffffffffff1614156102085760009150610213565b823b90506000811191505b50919050565b610490806102286000396000f30060806040526004361061006d576000357c0100000000000000000000000000000000000000000000000000000000900463ffffffff1680634555d5c9146101385780634558850c1461016357806348a0c8dd146101e25780635c60da1b1461021157806386070cfe14610268575b600080600061271092507f665fd576fbbe6f247aff98f5c94a561e3f71ec2d3c988d56f12d342396c50cea6001029150825a10156100ec5760003411361583541616156100e7576040513381523460208201527f15eeaa57c7bd188c1388020bcadc2c436ec60d647d36ef5b9eb3c742217ddee1604082a1005b600080fd5b6100f461029b565b9050610133816000368080601f01602080910402602001604051908101604052809392919081815260200183838082843782019150505050505061033c565b505050005b34801561014457600080fd5b5061014d61037f565b6040518082815260200191505060405180910390f35b34801561016f57600080fd5b506101a060048036038101908080356000191690602001909291908035600019169060200190929190505050610388565b604051808273ffffffffffffffffffffffffffffffffffffffff1673ffffffffffffffffffffffffffffffffffffffff16815260200191505060405180910390f35b3480156101ee57600080fd5b506101f76103ca565b604051808215151515815260200191505060405180910390f35b34801561021d57600080fd5b5061022661029b565b604051808273ffffffffffffffffffffffffffffffffffffffff1673ffffffffffffffffffffffffffffffffffffffff16815260200191505060405180910390f35b34801561027457600080fd5b5061027d610401565b60405180826000191660001916815260200191505060405180910390f35b60008060007fc681a85306374a5ab27f0bbc385296a54bcd314a1948b6cf61c4ea1bc44bb9f86001026000191660001916815260200190815260200160002060007f3b4bf6bf3ad5000ecf0f989d5befde585c6860fea3e574a4fab4c49d1c177d9c6001026000191660001916815260200190815260200160002060009054906101000a900473ffffffffffffffffffffffffffffffffffffffff16905090565b600061034783610407565b151561035257600080fd5b612710905060008083516020850186855a03f43d604051816000823e826000811461037b578282f35b8282fd5b60006002905090565b60006020528160005260406000206020528060005260406000206000915091509054906101000a900473ffffffffffffffffffffffffffffffffffffffff1681565b60006103fc7f665fd576fbbe6f247aff98f5c94a561e3f71ec2d3c988d56f12d342396c50cea60010260001916610459565b905090565b60015481565b600080600073ffffffffffffffffffffffffffffffffffffffff168373ffffffffffffffffffffffffffffffffffffffff1614156104485760009150610453565b823b90506000811191505b50919050565b6000815490509190505600a165627a7a72305820cc6f0100daa67d365f27685e642c3493d8efbc951daf6b1c7c2773bfe99fea630029",
  "source": "pragma solidity 0.4.24;\n\nimport \"./IKernel.sol\";\nimport \"./KernelConstants.sol\";\nimport \"./KernelStorage.sol\";\nimport \"../common/DepositableDelegateProxy.sol\";\nimport \"../common/IsContract.sol\";\n\n\ncontract KernelProxy is IKernelEvents, KernelStorage, KernelAppIds, KernelNamespaceConstants, IsContract, DepositableDelegateProxy {\n    /**\n    * @dev KernelProxy is a proxy contract to a kernel implementation. The implementation\n    *      can update the reference, which effectively upgrades the contract\n    * @param _kernelImpl Address of the contract used as implementation for kernel\n    */\n    constructor(IKernel _kernelImpl) public {\n        require(isContract(address(_kernelImpl)));\n        apps[KERNEL_CORE_NAMESPACE][KERNEL_CORE_APP_ID] = _kernelImpl;\n\n        // Note that emitting this event is important for verifying that a KernelProxy instance\n        // was never upgraded to a malicious Kernel logic contract over its lifespan.\n        // This starts the \"chain of trust\", that can be followed through later SetApp() events\n        // emitted during kernel upgrades.\n        emit SetApp(KERNEL_CORE_NAMESPACE, KERNEL_CORE_APP_ID, _kernelImpl);\n    }\n\n    /**\n     * @dev ERC897, whether it is a forwarding (1) or an upgradeable (2) proxy\n     */\n    function proxyType() public pure returns (uint256 proxyTypeId) {\n        return UPGRADEABLE;\n    }\n\n    /**\n    * @dev ERC897, the address the proxy would delegate calls to\n    */\n    function implementation() public view returns (address) {\n        return apps[KERNEL_CORE_NAMESPACE][KERNEL_CORE_APP_ID];\n    }\n}\n",
  "sourcePath": "@aragon/os/contracts/kernel/KernelProxy.sol",
  "compiler": {
    "name": "solc",
    "version": "0.4.24+commit.e67f0147.Emscripten.clang"
  },
  "schemaVersion": "2.0.1",
  "updatedAt": "2019-10-25T18:42:29.988Z"
}