{
  "contractName": "Repo",
  "abi": [
    {
      "constant": true,
      "inputs": [],
      "name": "hasInitialized",
      "outputs": [
        {
          "name": "",
          "type": "bool"
        }
      ],
      "payable": false,
      "stateMutability": "view",
      "type": "function"
    },
    {
      "constant": true,
      "inputs": [
        {
          "name": "_script",
          "type": "bytes"
        }
      ],
      "name": "getEVMScriptExecutor",
      "outputs": [
        {
          "name": "",
          "type": "address"
        }
      ],
      "payable": false,
      "stateMutability": "view",
      "type": "function"
    },
    {
      "constant": true,
      "inputs": [],
      "name": "getRecoveryVault",
      "outputs": [
        {
          "name": "",
          "type": "address"
        }
      ],
      "payable": false,
      "stateMutability": "view",
      "type": "function"
    },
    {
      "constant": true,
      "inputs": [
        {
          "name": "token",
          "type": "address"
        }
      ],
      "name": "allowRecoverability",
      "outputs": [
        {
          "name": "",
          "type": "bool"
        }
      ],
      "payable": false,
      "stateMutability": "view",
      "type": "function"
    },
    {
      "constant": true,
      "inputs": [],
      "name": "appId",
      "outputs": [
        {
          "name": "",
          "type": "bytes32"
        }
      ],
      "payable": false,
      "stateMutability": "view",
      "type": "function"
    },
    {
      "constant": true,
      "inputs": [],
      "name": "getInitializationBlock",
      "outputs": [
        {
          "name": "",
          "type": "uint256"
        }
      ],
      "payable": false,
      "stateMutability": "view",
      "type": "function"
    },
    {
      "constant": false,
      "inputs": [
        {
          "name": "_token",
          "type": "address"
        }
      ],
      "name": "transferToVault",
      "outputs": [],
      "payable": false,
      "stateMutability": "nonpayable",
      "type": "function"
    },
    {
      "constant": true,
      "inputs": [
        {
          "name": "_sender",
          "type": "address"
        },
        {
          "name": "_role",
          "type": "bytes32"
        },
        {
          "name": "_params",
          "type": "uint256[]"
        }
      ],
      "name": "canPerform",
      "outputs": [
        {
          "name": "",
          "type": "bool"
        }
      ],
      "payable": false,
      "stateMutability": "view",
      "type": "function"
    },
    {
      "constant": true,
      "inputs": [],
      "name": "getEVMScriptRegistry",
      "outputs": [
        {
          "name": "",
          "type": "address"
        }
      ],
      "payable": false,
      "stateMutability": "view",
      "type": "function"
    },
    {
      "constant": true,
      "inputs": [],
      "name": "CREATE_VERSION_ROLE",
      "outputs": [
        {
          "name": "",
          "type": "bytes32"
        }
      ],
      "payable": false,
      "stateMutability": "view",
      "type": "function"
    },
    {
      "constant": true,
      "inputs": [],
      "name": "kernel",
      "outputs": [
        {
          "name": "",
          "type": "address"
        }
      ],
      "payable": false,
      "stateMutability": "view",
      "type": "function"
    },
    {
      "constant": true,
      "inputs": [],
      "name": "isPetrified",
      "outputs": [
        {
          "name": "",
          "type": "bool"
        }
      ],
      "payable": false,
      "stateMutability": "view",
      "type": "function"
    },
    {
      "anonymous": false,
      "inputs": [
        {
          "indexed": false,
          "name": "versionId",
          "type": "uint256"
        },
        {
          "indexed": false,
          "name": "semanticVersion",
          "type": "uint16[3]"
        }
      ],
      "name": "NewVersion",
      "type": "event"
    },
    {
      "anonymous": false,
      "inputs": [
        {
          "indexed": true,
          "name": "executor",
          "type": "address"
        },
        {
          "indexed": false,
          "name": "script",
          "type": "bytes"
        },
        {
          "indexed": false,
          "name": "input",
          "type": "bytes"
        },
        {
          "indexed": false,
          "name": "returnData",
          "type": "bytes"
        }
      ],
      "name": "ScriptResult",
      "type": "event"
    },
    {
      "anonymous": false,
      "inputs": [
        {
          "indexed": true,
          "name": "vault",
          "type": "address"
        },
        {
          "indexed": true,
          "name": "token",
          "type": "address"
        },
        {
          "indexed": false,
          "name": "amount",
          "type": "uint256"
        }
      ],
      "name": "RecoverToVault",
      "type": "event"
    },
    {
      "constant": false,
      "inputs": [],
      "name": "initialize",
      "outputs": [],
      "payable": false,
      "stateMutability": "nonpayable",
      "type": "function"
    },
    {
      "constant": false,
      "inputs": [
        {
          "name": "_newSemanticVersion",
          "type": "uint16[3]"
        },
        {
          "name": "_contractAddress",
          "type": "address"
        },
        {
          "name": "_contentURI",
          "type": "bytes"
        }
      ],
      "name": "newVersion",
      "outputs": [],
      "payable": false,
      "stateMutability": "nonpayable",
      "type": "function"
    },
    {
      "constant": true,
      "inputs": [],
      "name": "getLatest",
      "outputs": [
        {
          "name": "semanticVersion",
          "type": "uint16[3]"
        },
        {
          "name": "contractAddress",
          "type": "address"
        },
        {
          "name": "contentURI",
          "type": "bytes"
        }
      ],
      "payable": false,
      "stateMutability": "view",
      "type": "function"
    },
    {
      "constant": true,
      "inputs": [
        {
          "name": "_contractAddress",
          "type": "address"
        }
      ],
      "name": "getLatestForContractAddress",
      "outputs": [
        {
          "name": "semanticVersion",
          "type": "uint16[3]"
        },
        {
          "name": "contractAddress",
          "type": "address"
        },
        {
          "name": "contentURI",
          "type": "bytes"
        }
      ],
      "payable": false,
      "stateMutability": "view",
      "type": "function"
    },
    {
      "constant": true,
      "inputs": [
        {
          "name": "_semanticVersion",
          "type": "uint16[3]"
        }
      ],
      "name": "getBySemanticVersion",
      "outputs": [
        {
          "name": "semanticVersion",
          "type": "uint16[3]"
        },
        {
          "name": "contractAddress",
          "type": "address"
        },
        {
          "name": "contentURI",
          "type": "bytes"
        }
      ],
      "payable": false,
      "stateMutability": "view",
      "type": "function"
    },
    {
      "constant": true,
      "inputs": [
        {
          "name": "_versionId",
          "type": "uint256"
        }
      ],
      "name": "getByVersionId",
      "outputs": [
        {
          "name": "semanticVersion",
          "type": "uint16[3]"
        },
        {
          "name": "contractAddress",
          "type": "address"
        },
        {
          "name": "contentURI",
          "type": "bytes"
        }
      ],
      "payable": false,
      "stateMutability": "view",
      "type": "function"
    },
    {
      "constant": true,
      "inputs": [],
      "name": "getVersionsCount",
      "outputs": [
        {
          "name": "",
          "type": "uint256"
        }
      ],
      "payable": false,
      "stateMutability": "view",
      "type": "function"
    },
    {
      "constant": true,
      "inputs": [
        {
          "name": "_oldVersion",
          "type": "uint16[3]"
        },
        {
          "name": "_newVersion",
          "type": "uint16[3]"
        }
      ],
      "name": "isValidBump",
      "outputs": [
        {
          "name": "",
          "type": "bool"
        }
      ],
      "payable": false,
      "stateMutability": "pure",
      "type": "function"
    }
  ],
  "bytecode": "0x60806040526200001d62000023640100000000026401000000009004565b62000309565b60006200003e6200015e640100000000026401000000009004565b146040805190810160405280601881526020017f494e49545f414c52454144595f494e495449414c495a4544000000000000000081525090151562000121576040517f08c379a00000000000000000000000000000000000000000000000000000000081526004018080602001828103825283818151815260200191508051906020019080838360005b83811015620000e5578082015181840152602081019050620000c8565b50505050905090810190601f168015620001135780820380516001836020036101000a031916815260200191505b509250505060405180910390fd5b506200015c7fffffffffffffffffffffffffffffffffffffffffffffffffffffffffffffffff620001ab640100000000026401000000009004565b565b6000620001a67febb05b386a8d34882b8711d156f463690983dc47815980fb82aeeff1aa43579e60010260001916620002f76401000000000262002325176401000000009004565b905090565b6000620001c66200015e640100000000026401000000009004565b146040805190810160405280601881526020017f494e49545f414c52454144595f494e495449414c495a45440000000000000000815250901515620002a9576040517f08c379a00000000000000000000000000000000000000000000000000000000081526004018080602001828103825283818151815260200191508051906020019080838360005b838110156200026d57808201518184015260208101905062000250565b50505050905090810190601f1680156200029b5780820380516001836020036101000a031916815260200191505b509250505060405180910390fd5b50620002f4817febb05b386a8d34882b8711d156f463690983dc47815980fb82aeeff1aa43579e6001026000191662000302640100000000026200265e179091906401000000009004565b50565b600081549050919050565b8082555050565b6128ae80620003196000396000f300608060405260043610610112576000357c0100000000000000000000000000000000000000000000000000000000900463ffffffff1680630803fac0146101175780632914b9bd1461014657806332f0a3b5146101ef5780634c3ba268146102465780637305341014610373578063737e7d4f1461042b5780637e7db6e11461053357806380afdea81461058e5780638129fc1c146105c15780638b3dd749146105d85780639a6fe50c146106035780639d4941d814610721578063a1658fad14610764578063a479e50814610810578063a7bdf16e14610867578063aa61924a14610900578063c36af46014610933578063c6d48e0d14610a25578063d4aae0c414610a50578063de4796ed14610aa7575b600080fd5b34801561012357600080fd5b5061012c610ad6565b604051808215151515815260200191505060405180910390f35b34801561015257600080fd5b506101ad600480360381019080803590602001908201803590602001908080601f0160208091040260200160405190810160405280939291908181526020018383808284378201915050505050509192919290505050610b01565b604051808273ffffffffffffffffffffffffffffffffffffffff1673ffffffffffffffffffffffffffffffffffffffff16815260200191505060405180910390f35b3480156101fb57600080fd5b50610204610c20565b604051808273ffffffffffffffffffffffffffffffffffffffff1673ffffffffffffffffffffffffffffffffffffffff16815260200191505060405180910390f35b34801561025257600080fd5b506102966004803603810190808060600190600380602002604051908101604052809291908260036020028082843782019150505050509192919290505050610ccd565b6040518084600360200280838360005b838110156102c15780820151818401526020810190506102a6565b505050509050018373ffffffffffffffffffffffffffffffffffffffff1673ffffffffffffffffffffffffffffffffffffffff16815260200180602001828103825283818151815260200191508051906020019080838360005b8381101561033657808201518184015260208101905061031b565b50505050905090810190601f1680156103635780820380516001836020036101000a031916815260200191505b5094505050505060405180910390f35b34801561037f57600080fd5b506104296004803603810190808060600190600380602002604051908101604052809291908260036020028082843782019150505050509192919290803573ffffffffffffffffffffffffffffffffffffffff169060200190929190803590602001908201803590602001908080601f0160208091040260200160405190810160405280939291908181526020018383808284378201915050505050509192919290505050610d12565b005b34801561043757600080fd5b506104566004803603810190808035906020019092919050505061136d565b6040518084600360200280838360005b83811015610481578082015181840152602081019050610466565b505050509050018373ffffffffffffffffffffffffffffffffffffffff1673ffffffffffffffffffffffffffffffffffffffff16815260200180602001828103825283818151815260200191508051906020019080838360005b838110156104f65780820151818401526020810190506104db565b50505050905090810190601f1680156105235780820380516001836020036101000a031916815260200191505b5094505050505060405180910390f35b34801561053f57600080fd5b50610574600480360381019080803573ffffffffffffffffffffffffffffffffffffffff1690602001909291905050506115bd565b604051808215151515815260200191505060405180910390f35b34801561059a57600080fd5b506105a36115c8565b60405180826000191660001916815260200191505060405180910390f35b3480156105cd57600080fd5b506105d66115ff565b005b3480156105e457600080fd5b506105ed6116fb565b6040518082815260200191505060405180910390f35b34801561060f57600080fd5b50610644600480360381019080803573ffffffffffffffffffffffffffffffffffffffff169060200190929190505050611732565b6040518084600360200280838360005b8381101561066f578082015181840152602081019050610654565b505050509050018373ffffffffffffffffffffffffffffffffffffffff1673ffffffffffffffffffffffffffffffffffffffff16815260200180602001828103825283818151815260200191508051906020019080838360005b838110156106e45780820151818401526020810190506106c9565b50505050905090810190601f1680156107115780820380516001836020036101000a031916815260200191505b5094505050505060405180910390f35b34801561072d57600080fd5b50610762600480360381019080803573ffffffffffffffffffffffffffffffffffffffff169060200190929190505050611793565b005b34801561077057600080fd5b506107f6600480360381019080803573ffffffffffffffffffffffffffffffffffffffff169060200190929190803560001916906020019092919080359060200190820180359060200190808060200260200160405190810160405280939291908181526020018383602002808284378201915050505050509192919290505050611bb1565b604051808215151515815260200191505060405180910390f35b34801561081c57600080fd5b50610825611dad565b604051808273ffffffffffffffffffffffffffffffffffffffff1673ffffffffffffffffffffffffffffffffffffffff16815260200191505060405180910390f35b34801561087357600080fd5b506108e660048036038101908080606001906003806020026040519081016040528092919082600360200280828437820191505050505091929192908060600190600380602002604051908101604052809291908260036020028082843782019150505050509192919290505050611ec8565b604051808215151515815260200191505060405180910390f35b34801561090c57600080fd5b50610915611fd5565b60405180826000191660001916815260200191505060405180910390f35b34801561093f57600080fd5b50610948611ffc565b6040518084600360200280838360005b83811015610973578082015181840152602081019050610958565b505050509050018373ffffffffffffffffffffffffffffffffffffffff1673ffffffffffffffffffffffffffffffffffffffff16815260200180602001828103825283818151815260200191508051906020019080838360005b838110156109e85780820151818401526020810190506109cd565b50505050905090810190601f168015610a155780820380516001836020036101000a031916815260200191505b5094505050505060405180910390f35b348015610a3157600080fd5b50610a3a612021565b6040518082815260200191505060405180910390f35b348015610a5c57600080fd5b50610a6561202e565b604051808273ffffffffffffffffffffffffffffffffffffffff1673ffffffffffffffffffffffffffffffffffffffff16815260200191505060405180910390f35b348015610ab357600080fd5b50610abc612065565b604051808215151515815260200191505060405180910390f35b600080610ae16116fb565b905060008114158015610afb575080610af8612096565b10155b91505090565b6000610b0b611dad565b73ffffffffffffffffffffffffffffffffffffffff166304bf2a7f836040518263ffffffff167c01000000000000000000000000000000000000000000000000000000000281526004018080602001828103825283818151815260200191508051906020019080838360005b83811015610b92578082015181840152602081019050610b77565b50505050905090810190601f168015610bbf5780820380516001836020036101000a031916815260200191505b5092505050602060405180830381600087803b158015610bde57600080fd5b505af1158015610bf2573d6000803e3d6000fd5b505050506040513d6020811015610c0857600080fd5b81019080805190602001909291905050509050919050565b6000610c2a61202e565b73ffffffffffffffffffffffffffffffffffffffff166332f0a3b56040518163ffffffff167c0100000000000000000000000000000000000000000000000000000000028152600401602060405180830381600087803b158015610c8d57600080fd5b505af1158015610ca1573d6000803e3d6000fd5b505050506040513d6020811015610cb757600080fd5b8101908080519060200190929190505050905090565b610cd56126ec565b60006060610d0560026000610ce98761209e565b600019166000191681526020019081526020016000205461136d565b9250925092509193909250565b600080610d1d6126ec565b6000807f1f56cfecd3595a2e6cc1a7e6cb0b20df84cdbd92eff2fee554e70e4e45a9a7d8600102610d7f33826000604051908082528060200260200182016040528015610d795781602001602082028038833980820191505090505b50611bb1565b6040805190810160405280600f81526020017f4150505f415554485f4641494c45440000000000000000000000000000000000815250901515610e5d576040517f08c379a00000000000000000000000000000000000000000000000000000000081526004018080602001828103825283818151815260200191508051906020019080838360005b83811015610e22578082015181840152602081019050610e07565b50505050905090810190601f168015610e4f5780820380516001836020036101000a031916815260200191505b509250505060405180910390fd5b50879550600160005403945060008511156110d15760016000868152602001908152602001600020925082600001600380602002604051908101604052809291908260038015610eea576020028201916000905b82829054906101000a900461ffff1661ffff1681526020019060020190602082600101049283019260010382029150808411610eb15790505b50505050509350600073ffffffffffffffffffffffffffffffffffffffff168673ffffffffffffffffffffffffffffffffffffffff161415610f4e578260010160009054906101000a900473ffffffffffffffffffffffffffffffffffffffff1695505b8573ffffffffffffffffffffffffffffffffffffffff168360010160009054906101000a900473ffffffffffffffffffffffffffffffffffffffff1673ffffffffffffffffffffffffffffffffffffffff161480610ff15750826000016000600381101515610fb957fe5b601091828204019190066002029054906101000a900461ffff1661ffff16896000600381101515610fe657fe5b602002015161ffff16115b6040805190810160405280601481526020017f5245504f5f494e56414c49445f56455253494f4e0000000000000000000000008152509015156110cf576040517f08c379a00000000000000000000000000000000000000000000000000000000081526004018080602001828103825283818151815260200191508051906020019080838360005b83811015611094578082015181840152602081019050611079565b50505050905090810190601f1680156110c15780820380516001836020036101000a031916815260200191505b509250505060405180910390fd5b505b6110db848a611ec8565b6040805190810160405280601181526020017f5245504f5f494e56414c49445f42554d500000000000000000000000000000008152509015156111b9576040517f08c379a00000000000000000000000000000000000000000000000000000000081526004018080602001828103825283818151815260200191508051906020019080838360005b8381101561117e578082015181840152602081019050611163565b50505050905090810190601f1680156111ab5780820380516001836020036101000a031916815260200191505b509250505060405180910390fd5b506000808154809291906001019190505591506060604051908101604052808a81526020018773ffffffffffffffffffffffffffffffffffffffff168152602001888152506001600084815260200190815260200160002060008201518160000190600361122892919061270f565b5060208201518160010160006101000a81548173ffffffffffffffffffffffffffffffffffffffff021916908373ffffffffffffffffffffffffffffffffffffffff160217905550604082015181600201908051906020019061128c9291906127ac565b50905050816002600061129e8c61209e565b600019166000191681526020019081526020016000208190555081600360008873ffffffffffffffffffffffffffffffffffffffff1673ffffffffffffffffffffffffffffffffffffffff168152602001908152602001600020819055507e3aea8189d1a0aa3ebdb05219cd4c2a663166706e949e9d6e8aa63718ca43fd828a6040518083815260200182600360200280838360005b8381101561134f578082015181840152602081019050611334565b505050509050019250505060405180910390a1505050505050505050565b6113756126ec565b600060606000808511801561138b575060005485105b6040805190810160405280601781526020017f5245504f5f494e4558495354454e545f56455253494f4e000000000000000000815250901515611469576040517f08c379a00000000000000000000000000000000000000000000000000000000081526004018080602001828103825283818151815260200191508051906020019080838360005b8381101561142e578082015181840152602081019050611413565b50505050905090810190601f16801561145b5780820380516001836020036101000a031916815260200191505b509250505060405180910390fd5b50600160008681526020019081526020016000209050806000018160010160009054906101000a900473ffffffffffffffffffffffffffffffffffffffff16826002018260038060200260405190810160405280929190826003801561150c576020028201916000905b82829054906101000a900461ffff1661ffff16815260200190600201906020826001010492830192600103820291508084116114d35790505b50505050509250808054600181600116156101000203166002900480601f0160208091040260200160405190810160405280929190818152602001828054600181600116156101000203166002900480156115a85780601f1061157d576101008083540402835291602001916115a8565b820191906000526020600020905b81548152906001019060200180831161158b57829003601f168201915b50505050509050935093509350509193909250565b600060019050919050565b60006115fa7fd625496217aa6a3453eecb9c3489dc5a53e6c67b444329ea2b2cbc9ff547639b600102600019166121ed565b905090565b60006116096116fb565b146040805190810160405280601881526020017f494e49545f414c52454144595f494e495449414c495a454400000000000000008152509015156116e8576040517f08c379a00000000000000000000000000000000000000000000000000000000081526004018080602001828103825283818151815260200191508051906020019080838360005b838110156116ad578082015181840152602081019050611692565b50505050905090810190601f1680156116da5780820380516001836020036101000a031916815260200191505b509250505060405180910390fd5b506116f16121f8565b6001600081905550565b600061172d7febb05b386a8d34882b8711d156f463690983dc47815980fb82aeeff1aa43579e60010260001916612325565b905090565b61173a6126ec565b60006060611786600360008673ffffffffffffffffffffffffffffffffffffffff1673ffffffffffffffffffffffffffffffffffffffff1681526020019081526020016000205461136d565b9250925092509193909250565b60008060006117a1846115bd565b6040805190810160405280601281526020017f5245434f5645525f444953414c4c4f574544000000000000000000000000000081525090151561187f576040517f08c379a00000000000000000000000000000000000000000000000000000000081526004018080602001828103825283818151815260200191508051906020019080838360005b83811015611844578082015181840152602081019050611829565b50505050905090810190601f1680156118715780820380516001836020036101000a031916815260200191505b509250505060405180910390fd5b50611888610c20565b925061189383612330565b6040805190810160405280601a81526020017f5245434f5645525f5641554c545f4e4f545f434f4e5452414354000000000000815250901515611971576040517f08c379a00000000000000000000000000000000000000000000000000000000081526004018080602001828103825283818151815260200191508051906020019080838360005b8381101561193657808201518184015260208101905061191b565b50505050905090810190601f1680156119635780820380516001836020036101000a031916815260200191505b509250505060405180910390fd5b50600073ffffffffffffffffffffffffffffffffffffffff168473ffffffffffffffffffffffffffffffffffffffff161415611a0d573073ffffffffffffffffffffffffffffffffffffffff163191508273ffffffffffffffffffffffffffffffffffffffff166108fc839081150290604051600060405180830381858888f19350505050158015611a07573d6000803e3d6000fd5b50611b46565b839050611a39308273ffffffffffffffffffffffffffffffffffffffff1661238290919063ffffffff16565b9150611a6683838373ffffffffffffffffffffffffffffffffffffffff1661255c9092919063ffffffff16565b6040805190810160405280601d81526020017f5245434f5645525f544f4b454e5f5452414e534645525f4641494c4544000000815250901515611b44576040517f08c379a00000000000000000000000000000000000000000000000000000000081526004018080602001828103825283818151815260200191508051906020019080838360005b83811015611b09578082015181840152602081019050611aee565b50505050905090810190601f168015611b365780820380516001836020036101000a031916815260200191505b509250505060405180910390fd5b505b8373ffffffffffffffffffffffffffffffffffffffff168373ffffffffffffffffffffffffffffffffffffffff167f596caf56044b55fb8c4ca640089bbc2b63cae3e978b851f5745cbb7c5b288e02846040518082815260200191505060405180910390a350505050565b600080611bbc610ad6565b1515611bcb5760009150611da5565b611bd361202e565b9050600073ffffffffffffffffffffffffffffffffffffffff168173ffffffffffffffffffffffffffffffffffffffff161415611c135760009150611da5565b8073ffffffffffffffffffffffffffffffffffffffff1663fdef9106863087611c3b8861263c565b6040518563ffffffff167c0100000000000000000000000000000000000000000000000000000000028152600401808573ffffffffffffffffffffffffffffffffffffffff1673ffffffffffffffffffffffffffffffffffffffff1681526020018473ffffffffffffffffffffffffffffffffffffffff1673ffffffffffffffffffffffffffffffffffffffff168152602001836000191660001916815260200180602001828103825283818151815260200191508051906020019080838360005b83811015611d18578082015181840152602081019050611cfd565b50505050905090810190601f168015611d455780820380516001836020036101000a031916815260200191505b5095505050505050602060405180830381600087803b158015611d6757600080fd5b505af1158015611d7b573d6000803e3d6000fd5b505050506040513d6020811015611d9157600080fd5b810190808051906020019092919050505091505b509392505050565b600080611db861202e565b73ffffffffffffffffffffffffffffffffffffffff1663be00bbd87fd6f028ca0e8edb4a8c9757ca4fdccab25fa1e0317da1188108f7d2dee14902fb6001027fddbcfd564f642ab5627cf68b9b7d374fb4f8a36e941a75d89c87998cef03bd616001026040518363ffffffff167c0100000000000000000000000000000000000000000000000000000000028152600401808360001916600019168152602001826000191660001916815260200192505050602060405180830381600087803b158015611e8457600080fd5b505af1158015611e98573d6000803e3d6000fd5b505050506040513d6020811015611eae57600080fd5b810190808051906020019092919050505090508091505090565b60008060008090505b6003811015611fc9578115611f0e5760008482600381101515611ef057fe5b602002015161ffff16141515611f095760009250611fcd565b611fbc565b8481600381101515611f1c57fe5b602002015161ffff168482600381101515611f3357fe5b602002015161ffff16141515611fbb578381600381101515611f5157fe5b602002015161ffff168582600381101515611f6857fe5b602002015161ffff161180611fa8575060018582600381101515611f8857fe5b60200201518583600381101515611f9b57fe5b60200201510361ffff1614155b15611fb65760009250611fcd565b600191505b5b8080600101915050611ed1565b8192505b505092915050565b7f1f56cfecd3595a2e6cc1a7e6cb0b20df84cdbd92eff2fee554e70e4e45a9a7d860010281565b6120046126ec565b6000606061201660016000540361136d565b925092509250909192565b6000600160005403905090565b60006120607f4172f0f7d2289153072b0a6ca36959e0cbe2efc3afe50fc81636caa96338137b60010260001916612653565b905090565b60007fffffffffffffffffffffffffffffffffffffffffffffffffffffffffffffffff6120906116fb565b14905090565b600043905090565b60008160006003811015156120af57fe5b60200201518260016003811015156120c357fe5b60200201518360026003811015156120d757fe5b6020020151604051602001808461ffff1661ffff167e010000000000000000000000000000000000000000000000000000000000000281526002018361ffff1661ffff167e010000000000000000000000000000000000000000000000000000000000000281526002018261ffff1661ffff167e0100000000000000000000000000000000000000000000000000000000000002815260020193505050506040516020818303038152906040526040518082805190602001908083835b6020831015156121b95780518252602082019150602081019050602083039250612194565b6001836020036101000a03801982511681845116808217855250505050505090500191505060405180910390209050919050565b600081549050919050565b60006122026116fb565b146040805190810160405280601881526020017f494e49545f414c52454144595f494e495449414c495a454400000000000000008152509015156122e1576040517f08c379a00000000000000000000000000000000000000000000000000000000081526004018080602001828103825283818151815260200191508051906020019080838360005b838110156122a657808201518184015260208101905061228b565b50505050905090810190601f1680156122d35780820380516001836020036101000a031916815260200191505b509250505060405180910390fd5b506123236122ed612096565b7febb05b386a8d34882b8711d156f463690983dc47815980fb82aeeff1aa43579e6001026000191661265e90919063ffffffff16565b565b600081549050919050565b600080600073ffffffffffffffffffffffffffffffffffffffff168373ffffffffffffffffffffffffffffffffffffffff161415612371576000915061237c565b823b90506000811191505b50919050565b600060606000808573ffffffffffffffffffffffffffffffffffffffff166370a0823190507c01000000000000000000000000000000000000000000000000000000000285604051602401808273ffffffffffffffffffffffffffffffffffffffff1673ffffffffffffffffffffffffffffffffffffffff168152602001915050604051602081830303815290604052907bffffffffffffffffffffffffffffffffffffffffffffffffffffffff19166020820180517bffffffffffffffffffffffffffffffffffffffffffffffffffffffff8381831617835250505050925061246c8684612665565b91509150816040805190810160405280601c81526020017f534146455f4552435f32305f42414c414e43455f52455645525445440000000081525090151561254f576040517f08c379a00000000000000000000000000000000000000000000000000000000081526004018080602001828103825283818151815260200191508051906020019080838360005b838110156125145780820151818401526020810190506124f9565b50505050905090810190601f1680156125415780820380516001836020036101000a031916815260200191505b509250505060405180910390fd5b5080935050505092915050565b6000606063a9059cbb7c0100000000000000000000000000000000000000000000000000000000028484604051602401808373ffffffffffffffffffffffffffffffffffffffff1673ffffffffffffffffffffffffffffffffffffffff16815260200182815260200192505050604051602081830303815290604052907bffffffffffffffffffffffffffffffffffffffffffffffffffffffff19166020820180517bffffffffffffffffffffffffffffffffffffffffffffffffffffffff83818316178352505050509050612632858261269a565b9150509392505050565b606060006020835102905082915080825250919050565b600081549050919050565b8082555050565b6000806000806040516020818751602089018a5afa9250600083111561268a57805191505b5081819350935050509250929050565b6000806040516020818551602087016000895af160008111156126e0573d600081146126cd57602081146126d6576126de565b600193506126de565b600183511493505b505b50508091505092915050565b606060405190810160405280600390602082028038833980820191505090505090565b826003600f0160109004810192821561279b5791602002820160005b8382111561276b57835183826101000a81548161ffff021916908361ffff160217905550926020019260020160208160010104928301926001030261272b565b80156127995782816101000a81549061ffff021916905560020160208160010104928301926001030261276b565b505b5090506127a8919061282c565b5090565b828054600181600116156101000203166002900490600052602060002090601f016020900481019282601f106127ed57805160ff191683800117855561281b565b8280016001018555821561281b579182015b8281111561281a5782518255916020019190600101906127ff565b5b509050612828919061285d565b5090565b61285a91905b8082111561285657600081816101000a81549061ffff021916905550600101612832565b5090565b90565b61287f91905b8082111561287b576000816000905550600101612863565b5090565b905600a165627a7a723058201a5a44cc7953c6a230cbb42aae8cb1e4d2dc323159737e70566236cb8bcd01f20029",
  "source": "pragma solidity 0.4.24;\n\nimport \"../apps/AragonApp.sol\";\n\n\n/* solium-disable function-order */\n// Allow public initialize() to be first\ncontract Repo is AragonApp {\n    /* Hardcoded constants to save gas\n    bytes32 public constant CREATE_VERSION_ROLE = keccak256(\"CREATE_VERSION_ROLE\");\n    */\n    bytes32 public constant CREATE_VERSION_ROLE = 0x1f56cfecd3595a2e6cc1a7e6cb0b20df84cdbd92eff2fee554e70e4e45a9a7d8;\n\n    string private constant ERROR_INVALID_BUMP = \"REPO_INVALID_BUMP\";\n    string private constant ERROR_INVALID_VERSION = \"REPO_INVALID_VERSION\";\n    string private constant ERROR_INEXISTENT_VERSION = \"REPO_INEXISTENT_VERSION\";\n\n    struct Version {\n        uint16[3] semanticVersion;\n        address contractAddress;\n        bytes contentURI;\n    }\n\n    uint256 internal versionsNextIndex;\n    mapping (uint256 => Version) internal versions;\n    mapping (bytes32 => uint256) internal versionIdForSemantic;\n    mapping (address => uint256) internal latestVersionIdForContract;\n\n    event NewVersion(uint256 versionId, uint16[3] semanticVersion);\n\n    /**\n    * @dev Initialize can only be called once. It saves the block number in which it was initialized.\n    * @notice Initialize this Repo\n    */\n    function initialize() public onlyInit {\n        initialized();\n        versionsNextIndex = 1;\n    }\n\n    /**\n    * @notice Create new version with contract `_contractAddress` and content `@fromHex(_contentURI)`\n    * @param _newSemanticVersion Semantic version for new repo version\n    * @param _contractAddress address for smart contract logic for version (if set to 0, it uses last versions' contractAddress)\n    * @param _contentURI External URI for fetching new version's content\n    */\n    function newVersion(\n        uint16[3] _newSemanticVersion,\n        address _contractAddress,\n        bytes _contentURI\n    ) public auth(CREATE_VERSION_ROLE)\n    {\n        address contractAddress = _contractAddress;\n        uint256 lastVersionIndex = versionsNextIndex - 1;\n\n        uint16[3] memory lastSematicVersion;\n\n        if (lastVersionIndex > 0) {\n            Version storage lastVersion = versions[lastVersionIndex];\n            lastSematicVersion = lastVersion.semanticVersion;\n\n            if (contractAddress == address(0)) {\n                contractAddress = lastVersion.contractAddress;\n            }\n            // Only allows smart contract change on major version bumps\n            require(\n                lastVersion.contractAddress == contractAddress || _newSemanticVersion[0] > lastVersion.semanticVersion[0],\n                ERROR_INVALID_VERSION\n            );\n        }\n\n        require(isValidBump(lastSematicVersion, _newSemanticVersion), ERROR_INVALID_BUMP);\n\n        uint256 versionId = versionsNextIndex++;\n        versions[versionId] = Version(_newSemanticVersion, contractAddress, _contentURI);\n        versionIdForSemantic[semanticVersionHash(_newSemanticVersion)] = versionId;\n        latestVersionIdForContract[contractAddress] = versionId;\n\n        emit NewVersion(versionId, _newSemanticVersion);\n    }\n\n    function getLatest() public view returns (uint16[3] semanticVersion, address contractAddress, bytes contentURI) {\n        return getByVersionId(versionsNextIndex - 1);\n    }\n\n    function getLatestForContractAddress(address _contractAddress)\n        public\n        view\n        returns (uint16[3] semanticVersion, address contractAddress, bytes contentURI)\n    {\n        return getByVersionId(latestVersionIdForContract[_contractAddress]);\n    }\n\n    function getBySemanticVersion(uint16[3] _semanticVersion)\n        public\n        view\n        returns (uint16[3] semanticVersion, address contractAddress, bytes contentURI)\n    {\n        return getByVersionId(versionIdForSemantic[semanticVersionHash(_semanticVersion)]);\n    }\n\n    function getByVersionId(uint _versionId) public view returns (uint16[3] semanticVersion, address contractAddress, bytes contentURI) {\n        require(_versionId > 0 && _versionId < versionsNextIndex, ERROR_INEXISTENT_VERSION);\n        Version storage version = versions[_versionId];\n        return (version.semanticVersion, version.contractAddress, version.contentURI);\n    }\n\n    function getVersionsCount() public view returns (uint256) {\n        return versionsNextIndex - 1;\n    }\n\n    function isValidBump(uint16[3] _oldVersion, uint16[3] _newVersion) public pure returns (bool) {\n        bool hasBumped;\n        uint i = 0;\n        while (i < 3) {\n            if (hasBumped) {\n                if (_newVersion[i] != 0) {\n                    return false;\n                }\n            } else if (_newVersion[i] != _oldVersion[i]) {\n                if (_oldVersion[i] > _newVersion[i] || _newVersion[i] - _oldVersion[i] != 1) {\n                    return false;\n                }\n                hasBumped = true;\n            }\n            i++;\n        }\n        return hasBumped;\n    }\n\n    function semanticVersionHash(uint16[3] version) internal pure returns (bytes32) {\n        return keccak256(abi.encodePacked(version[0], version[1], version[2]));\n    }\n}\n",
  "sourcePath": "@aragon/os/contracts/apm/Repo.sol",
  "compiler": {
    "name": "solc",
    "version": "0.4.24+commit.e67f0147.Emscripten.clang"
  },
  "schemaVersion": "2.0.1",
  "updatedAt": "2019-10-24T15:27:41.967Z"
}